:0300000002004CAF
:100008000000E2FBEAF2802C0000E0FBEAF080242A
:10001800E6B50202EBF62200E2B50202EBF222009C
:10002800E0B50202EBF02230F6E0A88220F5D3EA30
:10003800C6F582228B822230F6E6A88220F5D98086
:01004800CFE8
:0300A5000200490D
:0300490002016150
:1000A800AE82AF838E048F051EBEFF011FEC4D602C
:1000B80013758A67758CFCC28DD28C308DFDC28C0D
:1000C800C28D80E022AF8274E84FF5BC7F08DFFE66
:1000D800E5BC30E4FB53BCEFAEBD7F00EE2EFEEF77
:1000E80033FFEE2EFEEF33FFACBE5304037D00EC6E
:1000F8004EF582ED4FF58322AF82C374649508E410
:1001080095095006750864750900AE087D007432BB
:100118002DF582E43EF583750A648D0BC007120144
:10012800D4AD82AE83D007E4C39DFD74019EFEEF7B
:1001380070148DFAC374FF9DE49E500543F202804B
:100148001753F2FD80128DFBC374FF9DE49E50058A
:1001580043F302800353F3FD225391F7439208754A
:100168009D044391045392FB75BCE075D80075E972
:100178000075F90075D90075DA42750864750900CB
:1001880075820012010075D840538E7FE58954F0BE
:100198004401F5897582021200CD85820A85830B98
:1001A8009000641201FD750AFF750B031201D4AEAD
:1001B80082AF837464C39EF508E49FF509758200D5
:1001C8001201009000141200A880C9227A10E4FBE2
:1001D800FCE58225E0F582E58333F583EB33FBEC20
:1001E80033FCEB950AF5F0EC950B4006FCABF043BD
:0501F8008201DADD22A6
:06007B00E478FFF6D8FD59
:100059007900E94400601B7A0090021E780175A0BE
:1000690000E493F2A308B8000205A0D9F4DAF27506
:02007900A0FFE6
:1001FD00E582850AF0A4C582C0F0850BF0A4D0F08D
:0D020D0025F0C583850AF0A42583F5832222
:100081007800E84400600A790175A000E4F309D81A
:10009100FC7800E84400600C7900900001E4F0A3D2
:0400A100D8FCD9FAB4
:0D004C0075810B12021AE582600302004963
:04021A0075820022C7
:00000001FF
