:0300000002004CAF
:100008000000E2FBEAF2802C0000E0FBEAF080242A
:10001800E6B50202EBF62200E2B50202EBF222009C
:10002800E0B50202EBF02230F6E0A88220F5D3EA30
:10003800C6F582228B822230F6E6A88220F5D98086
:01004800CFE8
:0800A500E4F508F50902004929
:0300490002011E93
:1000AD00AE82AF838E048F051EBEFF011FEC4D6027
:1000BD0013758A67758CFCC28DD28C308DFDC28C08
:1000CD00C28D80E022AF82C2B6C2B57E008F0553CD
:1000DD000580ED24FF92B4EF2FFFD2B6C2B60EBE4F
:1000ED00080040E9D2B5C2B522AE82E583FF30E704
:1000FD0005758200801AAC0A7D00C3EC9EED64800C
:10010D008FF063F08095F05005850A8280028E8213
:10011D002253B18F43B270538E7FE58954F0440161
:10012D00F589E4F508F509750A07850882850983BF
:10013D001200F6E58290017793F4F5821200D290C9
:10014D0000781200AD0508E4B508020509C374076F
:10015D00950874808509F063F08095F050C9E4F539
:06016D0008F50980C22222
:08017700010204081020408081
:06007B00E478FFF6D8FD59
:100059007900E94400601B7A0090017F780175A05E
:1000690000E493F2A308B8000205A0D9F4DAF27506
:02007900A0FFE6
:100081007800E84400600A790175A000E4F309D81A
:10009100FC7800E84400600C7900900001E4F0A3D2
:0400A100D8FCD9FAB4
:0D004C0075810A120173E58260030200490C
:04017300758200226F
:00000001FF
