:0300000002004CAF
:100008000000E2FBEAF2802C0000E0FBEAF080242A
:10001800E6B50202EBF62200E2B50202EBF222009C
:10002800E0B50202EBF02230F6E0A88220F5D3EA30
:10003800C6F582228B822230F6E6A88220F5D98086
:01004800CFE8
:0800A500E4F508F50902004929
:030049000200D2E0
:1000AD00AE82AF838E048F051EBEFF011FEC4D6027
:1000BD0013758A67758CFCC28DD28C308DFDC28C08
:1000CD00C28D80E0225391FC439203D290D2915382
:1000DD008E7FE58954F04401F589E4F508F5097F33
:1000ED0000C290D291900096C0071200ADD290C27E
:1000FD00919000961200ADD0070FBF060040E205AB
:10010D0008E4B508020509C3E4950874808509F073
:10011D0063F08095F050C87F00C290C2919003E8C3
:10012D00C0071200ADD290D2919003E81200ADD06D
:0F013D00070FBF020040E2E4F508F50980A12298
:06007B00E478FFF6D8FD59
:100059007900E94400601B7A00900150780175A08D
:1000690000E493F2A308B8000205A0D9F4DAF27506
:02007900A0FFE6
:100081007800E84400600A790175A000E4F309D81A
:10009100FC7800E84400600C7900900001E4F0A3D2
:0400A100D8FCD9FAB4
:0D004C0075810912014CE582600302004934
:04014C007582002296
:00000001FF
