:0300000002004CAF
:100008000000E2FBEAF2802C0000E0FBEAF080242A
:10001800E6B50202EBF62200E2B50202EBF222009C
:10002800E0B50202EBF02230F6E0A88220F5D3EA30
:10003800C6F582228B822230F6E6A88220F5D98086
:01004800CFE8
:0800A500E4F508F50902004929
:03004900020105AC
:1000AD00AE82AF838E048F051EBEFF011FEC4D6027
:1000BD0013758A67758CFCC28DD28C308DFDC28C08
:1000CD00C28D80E022AF8274E84FF5BC7F08DFFE61
:1000DD00E5BC30E4FB53BCEFAEBD7F00EE2EFEEF72
:1000ED0033FFEE2EFEEF33FFACBE5304037D00EC69
:1000FD004EF582ED4FF583225391FE439201D2903E
:10010D00759D044391045392FB75BCE0538E7FE5BE
:10011D008954F04401F5897582021200D285820856
:10012D00858309C3E5089414E5096480948050061D
:10013D00750814750900C29085088285098312001F
:0F014D00ADD2908508828509831200AD80C9224A
:06007B00E478FFF6D8FD59
:100059007900E94400601B7A00900160780175A07D
:1000690000E493F2A308B8000205A0D9F4DAF27506
:02007900A0FFE6
:100081007800E84400600A790175A000E4F309D81A
:10009100FC7800E84400600C7900900001E4F0A3D2
:0400A100D8FCD9FAB4
:0D004C0075810912015CE582600302004924
:04015C007582002286
:00000001FF
