:040000000200543274
:03000B000200B040
:100010000000E2FBEAF2802C0000E0FBEAF0802422
:10002000E6B50202EBF62200E2B50202EBF2220094
:10003000E0B50202EBF02230F6E0A88220F5D3EA28
:10004000C6F582228B822230F6E6A88220F5D9807E
:01005000CFE0
:0300AD00020051FD
:0300510002022781
:1000B000C0E0C007C006C0D075D000758A67758CD7
:1000C000FCAE08AF0974012EF508E43FF509D0D065
:1000D000D006D007D0E032C2A9850882850983D234
:1000E000A922C37403950CE4950D500302016BE53E
:1000F0000C75F003A49000F97302010502010B02D4
:100100000125020151750C01750D00C2901200D736
:10011000E5828583F024F4F50E740135F0F50F7552
:100120000C02750D001200D7E5828583F0C3950E91
:10013000E5F0950F20E73AD2901200D7E58285834B
:10014000F024F4F50E740135F0F50F750C03750D00
:10015000001200D7E5828583F0C3950EE5F0950F78
:1001600020E70E750C01750D008006750CFF750DEE
:10017000FF22C374049510E495115003020220E598
:100180001075F003A4900189730201980201A40282
:1001900001C30201EC020206750A03750B0075101B
:1001A00001751100E50A450B603CB2911200D7E5DC
:1001B000828583F02496F512E435F0F5137510026C
:1001C0007511001200D7E5828583F0C39512E5F022
:1001D000951320E751150A74FFB50A02150B751027
:1001E000017511008040751003751100B291120065
:1001F000D7E5828583F0242CF512740135F0F513D0
:100200007510047511001200D7E5828583F0C3953F
:1002100012E5F0951320E70E7510037511008006A6
:100220007510FF7511FF225391FC439203D290D2B7
:1002300091538E7FE58954F04401F589758A67757D
:100240008CFCD2A9D2AFD28C1200E212017280F8DB
:01025000228B
:06008300E478FFF6D8FD51
:100061007900E94400601B7A00900255780175A07F
:1000710000E493F2A308B8000205A0D9F4DAF275FE
:02008100A0FFDE
:100089007800E84400600A790175A000E4F309D812
:10009900FC7800E84400600C7900900001E4F0A3CA
:0400A900D8FCD9FAAC
:0D005400758113120251E582600302005114
:040251007582002290
:00000001FF
