:040000000200643264
:01000B0032C2
:0100130032BA
:03001B000200E5FB
:100020000000E2FBEAF2802C0000E0FBEAF0802412
:10003000E6B50202EBF62200E2B50202EBF2220084
:10004000E0B50202EBF02230F6E0A88220F5D3EA18
:10005000C6F582228B822230F6E6A88220F5D9806E
:01006000CFD0
:0300BD00020061DD
:0300610002017B1E
:1000C000AE82AF838E048F051EBEFF011FEC4D6014
:1000D00013758A67758CFCC28DD28C308DFDC28CF5
:1000E000C28D80E02285088D85098BB2B532AC8245
:1000F000AD83AEF0FFEC4D4E4F7008C28EC2ABC266
:10010000B58077EFC313FBEE13FAED13F9EC13F898
:10011000740829F974073AFAE43BFB8C0A8D0B8EBC
:100120000C8F0D888289838AF0EB1201D8AC82ADE6
:1001300083AEF0FFC3EC9401ED9400EE9400EF94D5
:100140000050087C017D007E007F00C374FF9C741A
:10015000FF9DE49EE49F50087CFF7DFF7E007F00B2
:10016000E4C39CFCE49DFD74019EE49F8D088C0912
:1001700085088D85098BD2ABD28E22538E3FE589BF
:1001800054F04401F589E589540F4410F589D2BB38
:10019000900000E4F5F01200EE20B2FD9001B8E40A
:1001A000F5F01200EE9000C81200C090022AE4F5AB
:1001B000F01200EE9000C81200C0900293E4F5F037
:1001C0001200EE9001901200C0900000E4F5F012D1
:1001D00000EE30B2FD80C222FB7A20E4FCFDFEFF7F
:1001E000E5822582F582E58333F583E5F033F5F08A
:1001F000EB33FB4017DAE98042E5822582F582E5A0
:100200008333F583E5F033F5F0EB33FBEC33FCEDB2
:1002100033FDEE33FEEF33FFEC950AED950BEE95D3
:100220000CEF950D4013EC950AFCED950BFDEE954A
:0D0230000CFEEF950DFF438201DABEEB22BC
:06009300E478FFF6D8FD41
:100071007900E94400601B7A00900241780175A083
:1000810000E493F2A308B8000205A0D9F4DAF275EE
:02009100A0FFCE
:100099007800E84400600A790175A000E4F309D802
:1000A900FC7800E84400600C7900900001E4F0A3BA
:0400B900D8FCD9FA9C
:0D00640075810D12023DE58260030200610E
:04023D0075820022A4
:00000001FF
