:0300000002004CAF
:100008000000E2FBEAF2802C0000E0FBEAF080242A
:10001800E6B50202EBF62200E2B50202EBF222009C
:10002800E0B50202EBF02230F6E0A88220F5D3EA30
:10003800C6F582228B822230F6E6A88220F5D98086
:01004800CFE8
:0300A5000200490D
:030049000200D4DE
:1000A800AE82AF838E048F051EBEFF011FEC4D602C
:1000B80013758A67758CFCC28DD28C308DFDC28C0D
:1000C800C28D80E0229000141200A8225391FC43B4
:1000D8009203D290D291538E7FE58954F04401F572
:1000E80089C29020B2FD1200CDB290B29120B20820
:0E00F80090000A1200A880F51200CD80E622CA
:06007B00E478FFF6D8FD59
:100059007900E94400601B7A0090010A780175A0D3
:1000690000E493F2A308B8000205A0D9F4DAF27506
:02007900A0FFE6
:100081007800E84400600A790175A000E4F309D81A
:10009100FC7800E84400600C7900900001E4F0A3D2
:0400A100D8FCD9FAB4
:0D004C00758107120106E58260030200497C
:0401060075820022DC
:00000001FF
