:0300000002004CAF
:100008000000E2FBEAF2802C0000E0FBEAF080242A
:10001800E6B50202EBF62200E2B50202EBF222009C
:10002800E0B50202EBF02230F6E0A88220F5D3EA30
:10003800C6F582228B822230F6E6A88220F5D98086
:01004800CFE8
:0800A500E4F508F50902004929
:030049000200FAB8
:1000AD00AE82AF838E048F051EBEFF011FEC4D6027
:1000BD0013758A67758CFCC28DD28C308DFDC28C08
:1000CD00C28D80E022AE82E583FF30E705758200A8
:1000DD00801AAC0A7D00C3EC9EED64808FF063F056
:1000ED008095F05005850A8280028E8222E59375F7
:1000FD009300E5947594FF538E7FE58954F0440188
:10010D00F589E4F508F509750A0F850882850983D7
:10011D001200D2E58290015393F5809001F4120004
:10012D00AD0508E4B508020509C3740F9508748080
:10013D008509F063F08095F050CDE4F508F5098060
:02014D00C622C8
:100153003F065B4F666D7D077F6F777C395E7971F4
:06007B00E478FFF6D8FD59
:100059007900E94400601B7A00900163780175A07A
:1000690000E493F2A308B8000205A0D9F4DAF27506
:02007900A0FFE6
:100081007800E84400600A790175A000E4F309D81A
:10009100FC7800E84400600C7900900001E4F0A3D2
:0400A100D8FCD9FAB4
:0D004C0075810A12014FE582600302004930
:04014F007582002293
:00000001FF
